:100000000C942A000C9434000C9434000C943400AA
:100010000C9434000C9434000C9434000C94340090
:100020000C9434000C9434000C9434000C94340080
:100030000C9434000C9434000C9434000C94340070
:100040000C9434000C9434000C9434000C94340060
:100050000C94340011241FBECFE5D4E0DEBFCDBF29
:100060000E9436000C947B000C9400008FEF87BB3D
:1000700051E848E132E424E295E58AEA58BB6FE9A9
:1000800076E8E1E061507040E040E1F700C0000038
:1000900048BB6FE976E8E1E061507040E040E1F78D
:1000A00000C0000038BB6FE976E8E1E061507040C5
:1000B000E040E1F700C0000028BB6FE976E8E1E02E
:1000C00061507040E040E1F700C0000098BB6FE96C
:1000D00076E8E1E061507040E040E1F700C00000E8
:1000E00088BB6FE976E8E1E061507040E040E1F7FD
:0A00F00000C00000C3CFF894FFCF5A
:00000001FF
